{
    "contractName": "ChainBattles",
    "abi": [
        {
            "inputs": [],
            "stateMutability": "nonpayable",
            "type": "constructor"
        },
        {
            "anonymous": false,
            "inputs": [
                {
                    "indexed": true,
                    "internalType": "address",
                    "name": "owner",
                    "type": "address"
                },
                {
                    "indexed": true,
                    "internalType": "address",
                    "name": "approved",
                    "type": "address"
                },
                {
                    "indexed": true,
                    "internalType": "uint256",
                    "name": "tokenId",
                    "type": "uint256"
                }
            ],
            "name": "Approval",
            "type": "event"
        },
        {
            "anonymous": false,
            "inputs": [
                {
                    "indexed": true,
                    "internalType": "address",
                    "name": "owner",
                    "type": "address"
                },
                {
                    "indexed": true,
                    "internalType": "address",
                    "name": "operator",
                    "type": "address"
                },
                {
                    "indexed": false,
                    "internalType": "bool",
                    "name": "approved",
                    "type": "bool"
                }
            ],
            "name": "ApprovalForAll",
            "type": "event"
        },
        {
            "anonymous": false,
            "inputs": [
                {
                    "indexed": true,
                    "internalType": "address",
                    "name": "from",
                    "type": "address"
                },
                {
                    "indexed": true,
                    "internalType": "address",
                    "name": "to",
                    "type": "address"
                },
                {
                    "indexed": true,
                    "internalType": "uint256",
                    "name": "tokenId",
                    "type": "uint256"
                }
            ],
            "name": "Transfer",
            "type": "event"
        },
        {
            "inputs": [
                {
                    "internalType": "address",
                    "name": "to",
                    "type": "address"
                },
                {
                    "internalType": "uint256",
                    "name": "tokenId",
                    "type": "uint256"
                }
            ],
            "name": "approve",
            "outputs": [],
            "stateMutability": "nonpayable",
            "type": "function"
        },
        {
            "inputs": [
                {
                    "internalType": "address",
                    "name": "owner",
                    "type": "address"
                }
            ],
            "name": "balanceOf",
            "outputs": [
                {
                    "internalType": "uint256",
                    "name": "",
                    "type": "uint256"
                }
            ],
            "stateMutability": "view",
            "type": "function"
        },
        {
            "inputs": [
                {
                    "internalType": "uint256",
                    "name": "tokenId",
                    "type": "uint256"
                }
            ],
            "name": "generateCharacter",
            "outputs": [
                {
                    "internalType": "string",
                    "name": "",
                    "type": "string"
                }
            ],
            "stateMutability": "view",
            "type": "function"
        },
        {
            "inputs": [
                {
                    "internalType": "uint256",
                    "name": "tokenId",
                    "type": "uint256"
                }
            ],
            "name": "getApproved",
            "outputs": [
                {
                    "internalType": "address",
                    "name": "",
                    "type": "address"
                }
            ],
            "stateMutability": "view",
            "type": "function"
        },
        {
            "inputs": [
                {
                    "internalType": "uint256",
                    "name": "tokenId",
                    "type": "uint256"
                }
            ],
            "name": "getLevels",
            "outputs": [
                {
                    "internalType": "string",
                    "name": "",
                    "type": "string"
                }
            ],
            "stateMutability": "view",
            "type": "function"
        },
        {
            "inputs": [
                {
                    "internalType": "uint256",
                    "name": "tokenId",
                    "type": "uint256"
                }
            ],
            "name": "getTokenURI",
            "outputs": [
                {
                    "internalType": "string",
                    "name": "",
                    "type": "string"
                }
            ],
            "stateMutability": "view",
            "type": "function"
        },
        {
            "inputs": [
                {
                    "internalType": "address",
                    "name": "owner",
                    "type": "address"
                },
                {
                    "internalType": "address",
                    "name": "operator",
                    "type": "address"
                }
            ],
            "name": "isApprovedForAll",
            "outputs": [
                {
                    "internalType": "bool",
                    "name": "",
                    "type": "bool"
                }
            ],
            "stateMutability": "view",
            "type": "function"
        },
        {
            "inputs": [],
            "name": "mint",
            "outputs": [],
            "stateMutability": "nonpayable",
            "type": "function"
        },
        {
            "inputs": [],
            "name": "name",
            "outputs": [
                {
                    "internalType": "string",
                    "name": "",
                    "type": "string"
                }
            ],
            "stateMutability": "view",
            "type": "function"
        },
        {
            "inputs": [
                {
                    "internalType": "uint256",
                    "name": "tokenId",
                    "type": "uint256"
                }
            ],
            "name": "ownerOf",
            "outputs": [
                {
                    "internalType": "address",
                    "name": "",
                    "type": "address"
                }
            ],
            "stateMutability": "view",
            "type": "function"
        },
        {
            "inputs": [
                {
                    "internalType": "address",
                    "name": "from",
                    "type": "address"
                },
                {
                    "internalType": "address",
                    "name": "to",
                    "type": "address"
                },
                {
                    "internalType": "uint256",
                    "name": "tokenId",
                    "type": "uint256"
                }
            ],
            "name": "safeTransferFrom",
            "outputs": [],
            "stateMutability": "nonpayable",
            "type": "function"
        },
        {
            "inputs": [
                {
                    "internalType": "address",
                    "name": "from",
                    "type": "address"
                },
                {
                    "internalType": "address",
                    "name": "to",
                    "type": "address"
                },
                {
                    "internalType": "uint256",
                    "name": "tokenId",
                    "type": "uint256"
                },
                {
                    "internalType": "bytes",
                    "name": "_data",
                    "type": "bytes"
                }
            ],
            "name": "safeTransferFrom",
            "outputs": [],
            "stateMutability": "nonpayable",
            "type": "function"
        },
        {
            "inputs": [
                {
                    "internalType": "address",
                    "name": "operator",
                    "type": "address"
                },
                {
                    "internalType": "bool",
                    "name": "approved",
                    "type": "bool"
                }
            ],
            "name": "setApprovalForAll",
            "outputs": [],
            "stateMutability": "nonpayable",
            "type": "function"
        },
        {
            "inputs": [
                {
                    "internalType": "bytes4",
                    "name": "interfaceId",
                    "type": "bytes4"
                }
            ],
            "name": "supportsInterface",
            "outputs": [
                {
                    "internalType": "bool",
                    "name": "",
                    "type": "bool"
                }
            ],
            "stateMutability": "view",
            "type": "function"
        },
        {
            "inputs": [],
            "name": "symbol",
            "outputs": [
                {
                    "internalType": "string",
                    "name": "",
                    "type": "string"
                }
            ],
            "stateMutability": "view",
            "type": "function"
        },
        {
            "inputs": [
                {
                    "internalType": "uint256",
                    "name": "",
                    "type": "uint256"
                }
            ],
            "name": "tokenIdToLevels",
            "outputs": [
                {
                    "internalType": "uint256",
                    "name": "",
                    "type": "uint256"
                }
            ],
            "stateMutability": "view",
            "type": "function"
        },
        {
            "inputs": [
                {
                    "internalType": "uint256",
                    "name": "tokenId",
                    "type": "uint256"
                }
            ],
            "name": "tokenURI",
            "outputs": [
                {
                    "internalType": "string",
                    "name": "",
                    "type": "string"
                }
            ],
            "stateMutability": "view",
            "type": "function"
        },
        {
            "inputs": [
                {
                    "internalType": "uint256",
                    "name": "tokenId",
                    "type": "uint256"
                }
            ],
            "name": "train",
            "outputs": [],
            "stateMutability": "nonpayable",
            "type": "function"
        },
        {
            "inputs": [
                {
                    "internalType": "address",
                    "name": "from",
                    "type": "address"
                },
                {
                    "internalType": "address",
                    "name": "to",
                    "type": "address"
                },
                {
                    "internalType": "uint256",
                    "name": "tokenId",
                    "type": "uint256"
                }
            ],
            "name": "transferFrom",
            "outputs": [],
            "stateMutability": "nonpayable",
            "type": "function"
        }
    ],
    "bytecode": "60806040523480156200001157600080fd5b50604080518082018252600d81526c436861696e20426174746c657360981b6020808301918252835180850190945260058452644342544c5360d81b908401528151919291620000649160009162000083565b5080516200007a90600190602084019062000083565b50505062000165565b828054620000919062000129565b90600052602060002090601f016020900481019282620000b5576000855562000100565b82601f10620000d057805160ff191683800117855562000100565b8280016001018555821562000100579182015b8281111562000100578251825591602001919060010190620000e3565b506200010e92915062000112565b5090565b5b808211156200010e576000815560010162000113565b600181811c908216806200013e57607f821691505b6020821081036200015f57634e487b7160e01b600052602260045260246000fd5b50919050565b611e4a80620001756000396000f3fe608060405234801561001057600080fd5b50600436106101215760003560e01c806342842e0e116100ad578063b88d4fde11610071578063b88d4fde14610259578063c6a4342f1461026c578063c87b56dd1461028c578063e985e9c51461029f578063f43785f9146102db57600080fd5b806342842e0e146101f75780636352211e1461020a57806370a082311461021d57806395d89b411461023e578063a22cb4651461024657600080fd5b80630daefed5116100f45780630daefed5146101a35780631249c58b146101b657806323b872dd146101be578063368004ed146101d15780633bb3a24d146101e457600080fd5b806301ffc9a71461012657806306fdde031461014e578063081812fc14610163578063095ea7b31461018e575b600080fd5b610139610134366004611538565b6102ee565b60405190151581526020015b60405180910390f35b610156610340565b60405161014591906115ad565b6101766101713660046115c0565b6103d2565b6040516001600160a01b039091168152602001610145565b6101a161019c3660046115f5565b61045f565b005b6101566101b13660046115c0565b610574565b6101a16105d2565b6101a16101cc36600461161f565b61061b565b6101a16101df3660046115c0565b61064c565b6101566101f23660046115c0565b610703565b6101a161020536600461161f565b610754565b6101766102183660046115c0565b61076f565b61023061022b36600461165b565b6107e6565b604051908152602001610145565b61015661086d565b6101a1610254366004611676565b61087c565b6101a16102673660046116c8565b610887565b61023061027a3660046115c0565b60086020526000908152604090205481565b61015661029a3660046115c0565b6108bf565b6101396102ad3660046117a4565b6001600160a01b03918216600090815260056020908152604080832093909416825291909152205460ff1690565b6101566102e93660046115c0565b610a35565b60006001600160e01b031982166380ac58cd60e01b148061031f57506001600160e01b03198216635b5e139f60e01b145b8061033a57506301ffc9a760e01b6001600160e01b03198316145b92915050565b60606000805461034f906117d7565b80601f016020809104026020016040519081016040528092919081815260200182805461037b906117d7565b80156103c85780601f1061039d576101008083540402835291602001916103c8565b820191906000526020600020905b8154815290600101906020018083116103ab57829003601f168201915b5050505050905090565b60006103dd82610a57565b6104435760405162461bcd60e51b815260206004820152602c60248201527f4552433732313a20617070726f76656420717565727920666f72206e6f6e657860448201526b34b9ba32b73a103a37b5b2b760a11b60648201526084015b60405180910390fd5b506000908152600460205260409020546001600160a01b031690565b600061046a8261076f565b9050806001600160a01b0316836001600160a01b0316036104d75760405162461bcd60e51b815260206004820152602160248201527f4552433732313a20617070726f76616c20746f2063757272656e74206f776e656044820152603960f91b606482015260840161043a565b336001600160a01b03821614806104f357506104f381336102ad565b6105655760405162461bcd60e51b815260206004820152603860248201527f4552433732313a20617070726f76652063616c6c6572206973206e6f74206f7760448201527f6e6572206e6f7220617070726f76656420666f7220616c6c0000000000000000606482015260840161043a565b61056f8383610a74565b505050565b6060600061058183610a35565b604051602001610591919061182d565b60405160208183030381529060405290506105ab81610ae2565b6040516020016105bb9190611a85565b604051602081830303815290604052915050919050565b6105e0600780546001019055565b60006105eb60075490565b90506105f73382610c35565b6000818152600860205260408120556106188161061381610703565b610c4f565b50565b6106253382610cda565b6106415760405162461bcd60e51b815260040161043a90611aca565b61056f838383610dc3565b61065581610a57565b61065e57600080fd5b336106688261076f565b6001600160a01b0316146106c95760405162461bcd60e51b815260206004820152602260248201527f596f75206d757374206f776e2074686973204e465420746f20747261696e2069604482015261742160f01b606482015260840161043a565b6000818152600860205260409020546106e3816001611b31565b6000838152600860205260409020556106ff8261061381610703565b5050565b6060600061071083610f5f565b61071984610574565b60405160200161072a929190611b49565b604051602081830303815290604052905061074481610ae2565b6040516020016105bb9190611c11565b61056f83838360405180602001604052806000815250610887565b6000818152600260205260408120546001600160a01b03168061033a5760405162461bcd60e51b815260206004820152602960248201527f4552433732313a206f776e657220717565727920666f72206e6f6e657869737460448201526832b73a103a37b5b2b760b91b606482015260840161043a565b60006001600160a01b0382166108515760405162461bcd60e51b815260206004820152602a60248201527f4552433732313a2062616c616e636520717565727920666f7220746865207a65604482015269726f206164647265737360b01b606482015260840161043a565b506001600160a01b031660009081526003602052604090205490565b60606001805461034f906117d7565b6106ff338383611060565b6108913383610cda565b6108ad5760405162461bcd60e51b815260040161043a90611aca565b6108b98484848461112e565b50505050565b60606108ca82610a57565b6109305760405162461bcd60e51b815260206004820152603160248201527f45524337323155524953746f726167653a2055524920717565727920666f72206044820152703737b732bc34b9ba32b73a103a37b5b2b760791b606482015260840161043a565b60008281526006602052604081208054610949906117d7565b80601f0160208091040260200160405190810160405280929190818152602001828054610975906117d7565b80156109c25780601f10610997576101008083540402835291602001916109c2565b820191906000526020600020905b8154815290600101906020018083116109a557829003601f168201915b5050505050905060006109e060408051602081019091526000815290565b905080516000036109f2575092915050565b815115610a24578082604051602001610a0c929190611c56565b60405160208183030381529060405292505050919050565b610a2d84611161565b949350505050565b600081815260086020526040902054606090610a5081610f5f565b9392505050565b6000908152600260205260409020546001600160a01b0316151590565b600081815260046020526040902080546001600160a01b0319166001600160a01b0384169081179091558190610aa98261076f565b6001600160a01b03167f8c5be1e5ebec7d5bd14f71427d1e84f3dd0314c0f7b2291e5b200ac8c7c3b92560405160405180910390a45050565b60608151600003610b0157505060408051602081019091526000815290565b6000604051806060016040528060408152602001611dd56040913990506000600384516002610b309190611b31565b610b3a9190611c9b565b610b45906004611caf565b67ffffffffffffffff811115610b5d57610b5d6116b2565b6040519080825280601f01601f191660200182016040528015610b87576020820181803683370190505b509050600182016020820185865187015b80821015610bf3576003820191508151603f8160121c168501518453600184019350603f81600c1c168501518453600184019350603f8160061c168501518453600184019350603f8116850151845350600183019250610b98565b5050600386510660018114610c0f5760028114610c2257610c2a565b603d6001830353603d6002830353610c2a565b603d60018303535b509195945050505050565b6106ff828260405180602001604052806000815250611222565b610c5882610a57565b610cbb5760405162461bcd60e51b815260206004820152602e60248201527f45524337323155524953746f726167653a2055524920736574206f66206e6f6e60448201526d32bc34b9ba32b73a103a37b5b2b760911b606482015260840161043a565b6000828152600660209081526040909120825161056f92840190611489565b6000610ce582610a57565b610d465760405162461bcd60e51b815260206004820152602c60248201527f4552433732313a206f70657261746f7220717565727920666f72206e6f6e657860448201526b34b9ba32b73a103a37b5b2b760a11b606482015260840161043a565b6000610d518361076f565b9050806001600160a01b0316846001600160a01b03161480610d9857506001600160a01b0380821660009081526005602090815260408083209388168352929052205460ff165b80610a2d5750836001600160a01b0316610db1846103d2565b6001600160a01b031614949350505050565b826001600160a01b0316610dd68261076f565b6001600160a01b031614610e3a5760405162461bcd60e51b815260206004820152602560248201527f4552433732313a207472616e736665722066726f6d20696e636f72726563742060448201526437bbb732b960d91b606482015260840161043a565b6001600160a01b038216610e9c5760405162461bcd60e51b8152602060048201526024808201527f4552433732313a207472616e7366657220746f20746865207a65726f206164646044820152637265737360e01b606482015260840161043a565b610ea7600082610a74565b6001600160a01b0383166000908152600360205260408120805460019290610ed0908490611cce565b90915550506001600160a01b0382166000908152600360205260408120805460019290610efe908490611b31565b909155505060008181526002602052604080822080546001600160a01b0319166001600160a01b0386811691821790925591518493918716917fddf252ad1be2c89b69c2b068fc378daa952ba7f163c4a11628f55a4df523b3ef91a4505050565b606081600003610f865750506040805180820190915260018152600360fc1b602082015290565b8160005b8115610fb05780610f9a81611ce5565b9150610fa99050600a83611c9b565b9150610f8a565b60008167ffffffffffffffff811115610fcb57610fcb6116b2565b6040519080825280601f01601f191660200182016040528015610ff5576020820181803683370190505b5090505b8415610a2d5761100a600183611cce565b9150611017600a86611cfe565b611022906030611b31565b60f81b81838151811061103757611037611d12565b60200101906001600160f81b031916908160001a905350611059600a86611c9b565b9450610ff9565b816001600160a01b0316836001600160a01b0316036110c15760405162461bcd60e51b815260206004820152601960248201527f4552433732313a20617070726f766520746f2063616c6c657200000000000000604482015260640161043a565b6001600160a01b03838116600081815260056020908152604080832094871680845294825291829020805460ff191686151590811790915591519182527f17307eab39ab6107e8899845ad3d59bd9653f200f220920489ca2b5937696c31910160405180910390a3505050565b611139848484610dc3565b61114584848484611255565b6108b95760405162461bcd60e51b815260040161043a90611d28565b606061116c82610a57565b6111d05760405162461bcd60e51b815260206004820152602f60248201527f4552433732314d657461646174613a2055524920717565727920666f72206e6f60448201526e3732bc34b9ba32b73a103a37b5b2b760891b606482015260840161043a565b60006111e760408051602081019091526000815290565b905060008151116112075760405180602001604052806000815250610a50565b8061121184610f5f565b6040516020016105bb929190611c56565b61122c8383611356565b6112396000848484611255565b61056f5760405162461bcd60e51b815260040161043a90611d28565b60006001600160a01b0384163b1561134b57604051630a85bd0160e11b81526001600160a01b0385169063150b7a0290611299903390899088908890600401611d7a565b6020604051808303816000875af19250505080156112d4575060408051601f3d908101601f191682019092526112d191810190611db7565b60015b611331573d808015611302576040519150601f19603f3d011682016040523d82523d6000602084013e611307565b606091505b5080516000036113295760405162461bcd60e51b815260040161043a90611d28565b805181602001fd5b6001600160e01b031916630a85bd0160e11b149050610a2d565b506001949350505050565b6001600160a01b0382166113ac5760405162461bcd60e51b815260206004820181905260248201527f4552433732313a206d696e7420746f20746865207a65726f2061646472657373604482015260640161043a565b6113b581610a57565b156114025760405162461bcd60e51b815260206004820152601c60248201527f4552433732313a20746f6b656e20616c7265616479206d696e74656400000000604482015260640161043a565b6001600160a01b038216600090815260036020526040812080546001929061142b908490611b31565b909155505060008181526002602052604080822080546001600160a01b0319166001600160a01b03861690811790915590518392907fddf252ad1be2c89b69c2b068fc378daa952ba7f163c4a11628f55a4df523b3ef908290a45050565b828054611495906117d7565b90600052602060002090601f0160209004810192826114b757600085556114fd565b82601f106114d057805160ff19168380011785556114fd565b828001600101855582156114fd579182015b828111156114fd5782518255916020019190600101906114e2565b5061150992915061150d565b5090565b5b80821115611509576000815560010161150e565b6001600160e01b03198116811461061857600080fd5b60006020828403121561154a57600080fd5b8135610a5081611522565b60005b83811015611570578181015183820152602001611558565b838111156108b95750506000910152565b60008151808452611599816020860160208601611555565b601f01601f19169290920160200192915050565b602081526000610a506020830184611581565b6000602082840312156115d257600080fd5b5035919050565b80356001600160a01b03811681146115f057600080fd5b919050565b6000806040838503121561160857600080fd5b611611836115d9565b946020939093013593505050565b60008060006060848603121561163457600080fd5b61163d846115d9565b925061164b602085016115d9565b9150604084013590509250925092565b60006020828403121561166d57600080fd5b610a50826115d9565b6000806040838503121561168957600080fd5b611692836115d9565b9150602083013580151581146116a757600080fd5b809150509250929050565b634e487b7160e01b600052604160045260246000fd5b600080600080608085870312156116de57600080fd5b6116e7856115d9565b93506116f5602086016115d9565b925060408501359150606085013567ffffffffffffffff8082111561171957600080fd5b818701915087601f83011261172d57600080fd5b81358181111561173f5761173f6116b2565b604051601f8201601f19908116603f01168101908382118183101715611767576117676116b2565b816040528281528a602084870101111561178057600080fd5b82602086016020830137600060208483010152809550505050505092959194509250565b600080604083850312156117b757600080fd5b6117c0836115d9565b91506117ce602084016115d9565b90509250929050565b600181811c908216806117eb57607f821691505b60208210810361180b57634e487b7160e01b600052602260045260246000fd5b50919050565b60008151611823818560208601611555565b9290920192915050565b7f3c73766720786d6c6e733d22687474703a2f2f7777772e77332e6f72672f323081527f30302f73766722207072657365727665417370656374526174696f3d22784d6960208201527f6e594d696e206d656574222076696577426f783d223020302033353020333530604082015261111f60f11b60608201527f3c7374796c653e2e62617365207b2066696c6c3a2077686974653b20666f6e7460628201527f2d66616d696c793a2073657269663b20666f6e742d73697a653a20313470783b608282015269103e9e17b9ba3cb6329f60b11b60a28201527f3c726563742077696474683d223130302522206865696768743d22313030252260ac8201526f103334b6361e91313630b1b59110179f60811b60cc8201527f3c7465787420783d223530252220793d223430252220636c6173733d2262617360dc8201527f652220646f6d696e616e742d626173656c696e653d226d6964646c652220746560fc820152723c3a16b0b731b437b91e9136b4b2323632911f60691b61011c820152662bb0b93934b7b960c91b61012f8201526000610a50611a736119db611a6d611a596119ee610136880184565b661e17ba32bc3a1f60c91b815260070190565b7f3c7465787420783d223530252220793d223530252220636c6173733d2262617381527f652220646f6d696e616e742d626173656c696e653d226d6964646c65222074656020820152723c3a16b0b731b437b91e9136b4b2323632911f60691b604082015260530190565b6702632bb32b6399d160c51b815260080190565b86611811565b651e17b9bb339f60d11b815260060190565b7f646174613a696d6167652f7376672b786d6c3b6261736536342c000000000000815260008251611abd81601a850160208701611555565b91909101601a0192915050565b60208082526031908201527f4552433732313a207472616e736665722063616c6c6572206973206e6f74206f6040820152701ddb995c881b9bdc88185c1c1c9bdd9959607a1b606082015260800190565b634e487b7160e01b600052601160045260246000fd5b60008219821115611b4457611b44611b1b565b500190565b607b60f81b81527f226e616d65223a2022436861696e20426174746c657320230000000000000000600182015260008351611b8b816019850160208801611555565b61088b60f21b60199184019182018190527f226465736372697074696f6e223a2022426174746c6573206f6e20636861696e601b830152603b820152691134b6b0b3b2911d101160b11b603d8201528351611bed816047840160208801611555565b601160f91b60479290910191820152607d60f81b6048820152604901949350505050565b7f646174613a6170706c69636174696f6e2f6a736f6e3b6261736536342c000000815260008251611c4981601d850160208701611555565b91909101601d0192915050565b60008351611c68818460208801611555565b835190830190611c7c818360208801611555565b01949350505050565b634e487b7160e01b600052601260045260246000fd5b600082611caa57611caa611c85565b500490565b6000816000190483118215151615611cc957611cc9611b1b565b500290565b600082821015611ce057611ce0611b1b565b500390565b600060018201611cf757611cf7611b1b565b5060010190565b600082611d0d57611d0d611c85565b500690565b634e487b7160e01b600052603260045260246000fd5b60208082526032908201527f4552433732313a207472616e7366657220746f206e6f6e20455243373231526560408201527131b2b4bb32b91034b6b83632b6b2b73a32b960711b606082015260800190565b6001600160a01b0385811682528416602082015260408101839052608060608201819052600090611dad90830184611581565b9695505050505050565b600060208284031215611dc957600080fd5b8151610a508161152256fe4142434445464748494a4b4c4d4e4f505152535455565758595a6162636465666768696a6b6c6d6e6f707172737475767778797a303132333435363738392b2fa2646970667358221220faba9d1e7a6cc9698fa2eac63bb6172024fd9a976649bade2cf166c94181f1a064736f6c634300080e0033",
    "sourcePath": "c:/Users/aplaz/road-to-web3-wk3/chainbattles/contracts/ChainBattles.sol",
    "compiler": {
        "name": "solc",
        "version": "0.8.14+commit.80d49f37"
    },
    "functionHashes": {
        "approve(address,uint256)": "095ea7b3",
        "balanceOf(address)": "70a08231",
        "generateCharacter(uint256)": "0daefed5",
        "getApproved(uint256)": "081812fc",
        "getLevels(uint256)": "f43785f9",
        "getTokenURI(uint256)": "3bb3a24d",
        "isApprovedForAll(address,address)": "e985e9c5",
        "mint()": "1249c58b",
        "name()": "06fdde03",
        "ownerOf(uint256)": "6352211e",
        "safeTransferFrom(address,address,uint256)": "42842e0e",
        "safeTransferFrom(address,address,uint256,bytes)": "b88d4fde",
        "setApprovalForAll(address,bool)": "a22cb465",
        "supportsInterface(bytes4)": "01ffc9a7",
        "symbol()": "95d89b41",
        "tokenIdToLevels(uint256)": "c6a4342f",
        "tokenURI(uint256)": "c87b56dd",
        "train(uint256)": "368004ed",
        "transferFrom(address,address,uint256)": "23b872dd"
    },
    "gasEstimates": {
        "creation": {
            "codeDepositCost": "1550800",
            "executionCost": "infinite",
            "totalCost": "infinite"
        },
        "external": {
            "approve(address,uint256)": "infinite",
            "balanceOf(address)": "2656",
            "generateCharacter(uint256)": "infinite",
            "getApproved(uint256)": "4799",
            "getLevels(uint256)": "infinite",
            "getTokenURI(uint256)": "infinite",
            "isApprovedForAll(address,address)": "infinite",
            "mint()": "infinite",
            "name()": "infinite",
            "ownerOf(uint256)": "2601",
            "safeTransferFrom(address,address,uint256)": "infinite",
            "safeTransferFrom(address,address,uint256,bytes)": "infinite",
            "setApprovalForAll(address,bool)": "26794",
            "supportsInterface(bytes4)": "534",
            "symbol()": "infinite",
            "tokenIdToLevels(uint256)": "2482",
            "tokenURI(uint256)": "infinite",
            "train(uint256)": "infinite",
            "transferFrom(address,address,uint256)": "infinite"
        }
    }
}